:10000000004000206305000059050000590500006C
:100010001105000011050000110500001105000088
:100020001105000011050000110500005905000030
:1000300011050000110500005905000059050000D8
:100040005905000059050000590500005905000038
:100050005905000011050000590500005905000070
:100060005905000059050000590500005905000018
:100070005905000059050000590500005905000008
:1000800059050000590500005905000059050000F8
:1000900059050000590500005905000059050000E8
:1000A0005905000059050000110500001105000068
:1000B00011050000110500001105000011050000E8
:1000C000F0B500250C4C01212160854210DA002694
:1000D0000023AE4208DCB1006258A91B89006158B8
:1000E0004A439B180136F4E70135A9006350ECE759
:1000F00081006058F0BD000000000020074B1B6825
:10010000002B03D1064A1368002BFCD00023034ABE
:100110001360034A1360034B18607047000400200B
:100120001C2100401C250040144B802252041A6000
:10013000134B802292041A60124B1A680C210A4356
:100140001A60114A13680B431360104B104A1A606F
:100150000022104B1A60104B0C3119600F4B01310B
:1001600019600F4B1539196001230E490B600E49B8
:100170000B600E490A600E4A136070471805005064
:100180001C05005060070050640700502425004003
:10019000005027006C2500400C250040142500402D
:1001A00000250040082000400020004008210040B9
:1001B00000040020054A1368002BFCD0044B1B6888
:1001C000024A00211160FF201840704708210040BA
:1001D0001825004010B504000078002805D001342F
:1001E000FFF78CFF20780028F9D110BD0FB400B5BF
:1001F00083B004AA02CA0192034800F066F903B072
:1002000008BC04B01847C046FD00000070B5FFF7F9
:10021000E1FF134CFFF7CEFFFF2303400D2B19D056
:100220007F2B0FD0082B0DD0C0B20300203B5E2BDC
:10023000F0D80C4B9C42EDD2651C2070FFF75EFF9E
:100240002C00E7E7064B9C42E4D9013C0648FFF747
:10025000C1FFDFE7002323700448FFF7BBFF70BD39
:10026000040400205404002090070000BC07000094
:1002700010B50A48FFF7CAFF094B1B78302B05D190
:10028000074B5B7820229343582B03D0044800F09F
:10029000E7F810BD034800F003F9FAE794070000FF
:1002A0000404002006040020F8B5FFF73DFF0E48C7
:1002B000FFF79CFF0D4B0E4A1A600E4E0E4FFFF7D4
:1002C000D7FF04000D4B3360FFF7FAFE0500002353
:1002D0003360020021003800FFF788FF2A00210068
:1002E0000748FFF783FFEAE7A8070000180500505A
:1002F000F0FF000004050050C0070000B05F0000E0
:10030000D0070000F8B504000E0015000F350023DB
:10031000D373084F013D3100200000F02DFA7B5CC3
:100320002B703100200000F0A1F9041EF2D128004A
:10033000F8BDC0463808000010B50368002B02D095
:100340000800984710BD43685A1C42601970F9E7CD
:1003500070B505000C000978002906D02800FFF7C9
:10036000EBFF013421780029F8D170BDF0B5C64605
:1003700000B584B006000D001700097800295BD194
:1003800004B004BC9046F0BD3D1D39783000FFF745
:10039000D3FF2F004CE03D1D3868002809DB6A467A
:1003A0000A21FFF7AFFF01003000FFF7D1FF2F0058
:1003B0003EE040426A460A21FFF7A4FF411E2D237A
:1003C0000B70F1E73D1D39683000FFF7C1FF2F00CA
:1003D0002EE03D1D38686A460A21FFF793FF0100B1
:1003E0003000FFF7B5FF2F0022E03B1D98463D6827
:1003F000002D05D130213000FFF79EFF474617E062
:1004000015493000FFF7A4FF6A4610212800FFF7C6
:1004100079FF01003000FFF79BFF474608E011001D
:100420003000FFF789FF03E03000FFF785FF2C0065
:10043000651C61780029A3D02529F5D16A78002AA6
:10044000F2D06C1C1300633BD9B21529E7D88B009E
:100450000249CB589F46C0464C080000E007000008
:1004600010B5037800242D2B15D001780B00303BFC
:100470000022092B0BD8013093009B185B005B18FE
:10048000303B1A0001780B00303B092BF3D91000E8
:10049000002C03D110BD01300134E6E75042F9E7EA
:1004A0000200002007E01900613905290CD800017D
:1004B0005738181801321378190030390929F2D841
:1004C000000130381818F5E7704700B583B0009088
:1004D000002301936846FFF749FF03B000BD0EB447
:1004E00030B584B0040007AA02CA00250295039023
:1004F000019202A8FFF73AFF039B5A1C03921D705A
:100500000398001B04B030BC08BC03B01847C046B9
:1005100072B60C4B0C4A1A600C4A8020C0010021B4
:1005200010600B4BC046C046C046013B002BF9D1C2
:100530001160084BC046C046C046013B002BF9D1B4
:10054000EEE7C04614050050F0FF0000040500501F
:1005500040420F00400D030010B5FFF7D9FF10BD5A
:10056000704710B5164A136803210B431360154AF0
:10057000154B9A420DD20333144A9B1A9B08013340
:100580009B0000220F4812498C58845004329A4232
:10059000FAD1104A104B9A4209D2111D03335B1A4B
:1005A000032083435B18002102C29A42FCD1FFF76B
:1005B000D7FFFFF779FEFFF7D3FF20BFFDE7C04667
:1005C000240500400000002000000020040000205E
:1005D00050080000000000205404002070B50028DE
:1005E00012DB83109B00134A944663441C68C000CE
:1005F000FF221600864003252E40B4430A40824065
:100600002A4022431A6070BD030008339B109B00F0
:10061000094A944663441C68C000FF2216008640C5
:1006200003252E40B4430A4082402A4022431A60E8
:10063000E9E7C04600E400E01CED00E00123834050
:10064000014A13607047C04600E100E00123834087
:10065000014A13607047C04680E100E001238340F7
:10066000014A13607047C04680E200E00022430860
:100670008B4274D303098B425FD3030A8B4244D36A
:10068000030B8B4228D3030C8B420DD3FF220902AC
:1006900012BA030C8B4202D31212090265D0030B6B
:1006A0008B4219D300E0090AC30B8B4201D3CB0361
:1006B000C01A5241830B8B4201D38B03C01A5241A3
:1006C000430B8B4201D34B03C01A5241030B8B42A5
:1006D00001D30B03C01A5241C30A8B4201D3CB0290
:1006E000C01A5241830A8B4201D38B02C01A524175
:1006F000430A8B4201D34B02C01A5241030A8B4278
:1007000001D30B02C01A5241CDD2C3098B4201D38F
:10071000CB01C01A524183098B4201D38B01C01A0D
:10072000524143098B4201D34B01C01A5241030984
:100730008B4201D30B01C01A5241C3088B4201D333
:10074000CB00C01A524183088B4201D38B00C01AE0
:10075000524143088B4201D34B00C01A5241411A07
:1007600000D20146524110467047FFE701B5002014
:1007700000F00CF802BDC0460029F7D003B5FFF722
:1007800075FF0EBC4243891A1847C0467047C046E1
:100790000820080047696D6D652061206E756D62E7
:1007A00065723A20000000000D0A48656C6C6F20ED
:1007B0006D6963726F3A776F726C64210D0A000085
:1007C000666F6F28256429203D2025640D0A0000EE
:1007D000666F6F28257829203D2025780D0A0000B6
:1007E00088030000960300001E0400001E040000A1
:1007F0001E0400001E0400001E0400001E04000071
:100800001E0400001E0400001E0400001E04000060
:100810001E0400001E0400001E0400001E04000050
:10082000C40300001E040000D20300001E040000E8
:100830001E040000EA03000030313233343536370D
:10084000383961626364656600000000307800003A
:00000001FF
