:1000000000400020370600002D0600002D060000ED
:10001000E5050000E5050000E5050000E505000038
:10002000E5050000E5050000E50500002D060000DF
:10003000E5050000E50500002D0600002D06000086
:100040002D0600002D060000B50100002D06000061
:100050002D060000E50500002D0600002D0600001D
:100060002D0600002D0600002D0600002D060000C4
:100070002D060000A10200002D0600002D06000044
:100080002D0600002D0600002D0600002D060000A4
:100090002D0600002D0600002D0600002D06000094
:1000A0002D0600002D060000E5050000E505000016
:1000B000E5050000E5050000E5050000E505000098
:1000C0000E4B1B68012B04D10C4A20BF1368012B77
:1000D000FBD072B6094B5B68002B07D1074B1A683F
:1000E00018721A6801321A6062B6704762B6034B22
:1000F00000225A60024B1860F6E7C046000000205C
:100100001C25004010B51B48002303601A4A8021BB
:1001100049041160194A802189041160184A116844
:100120000C242143116017490A6822430A60164AC9
:1001300016491160164A1360164A18211160164AB2
:1001400001311160042202600B3C144A1460144A0D
:100150001460144A1360144A1360144B80221A600E
:100160001639022000F0A4FA022000F0D1FA104B58
:100170005C6010BD00250040180500501C050050B3
:1001800060070050640700502425004000502700FD
:100190006C2500400C25004014250040082000403C
:1001A00000200040082100401C21004004230040A2
:1001B000000000200D4B1B68002B12D00B4B0022BF
:1001C0001A600B4B1B68002B0CD0094BDA689A188D
:1001D000127AD2B207490A601A68013A1A600022FC
:1001E000DA607047024B01325A60FAE71C21004086
:1001F000000000201C2500400FB400B583B004AA05
:1002000002CA0192034800F0CAF903B008BC04B066
:100210001847C046C1000000884202DB401A8142F4
:10022000FCDD70470222012303280ADC0EE09B1A42
:100230009342FCDA002B09D001321300534383426E
:1002400003DC03009042F2DAF4E701231800704760
:10025000034B044A1A60044B044A1A607047C046B4
:1002600018050050F0FF000004050050BF5F0000BB
:10027000014B00221A6070470405005010B501239D
:10028000044A1360044A1360044A13600D2000F00E
:100290003FFA10BD04D0004004D3004000D000401D
:1002A00070B50D4B1B68012B00D070BD0B4D2C6938
:1002B000FA218900200000F0C9FA094B1A68890068
:1002C000084BCA50601CFA21890000F0BFFA29616E
:1002D000014B00221A60E8E700D100400000002036
:1002E00008D500402C00002010B50F4B1B69032BD4
:1002F00006D80D4B20BF1A69032AFBD9002012E053
:10030000591E0A4A89008858991E89008C58D91E9E
:1003100089008958043B9B009A5800062404001960
:1003200080180902401810BD000000202C00002099
:1003300010B5FFF7D9FF032804D9062100F086FA8B
:10034000080010BDFFF7F4FFFBE7F8B51D4B0022D6
:100350001A61FFF7D7FEFFF791FFFFF779FF00253E
:10036000184E194F13E0FFF7BFFF03280DD90621E0
:1003700000F06CFA8900134B9C4661444B690133D1
:100380004B61043C63461C610135BD4204DC3469A9
:10039000042CE8D820BFF8E701240A4E0B4DA30037
:1003A000F3185A6921002800FFF726FF0134062CB4
:1003B000F5D1044B59690648FFF71EFF054B002293
:1003C0001A60F8BD000000205FEA00006408000029
:1003D0008008000004050050F8B504000E00150068
:1003E0000F350023D373084F013D3100200000F08A
:1003F0002DFA7B5C2B703100200000F0A1F9041E67
:10040000F2D12800F8BDC046F008000010B503681E
:10041000002B02D00800984710BD43685A1C426068
:100420001970F9E770B505000C000978002906D0AD
:100430002800FFF7EBFF013421780029F8D170BDC7
:10044000F0B5C64600B584B006000D001700097867
:1004500000295BD104B004BC9046F0BD3D1D397845
:100460003000FFF7D3FF2F004CE03D1D3868002817
:1004700009DB6A460A21FFF7AFFF01003000FFF7F2
:10048000D1FF2F003EE040426A460A21FFF7A4FF59
:10049000411E2D230B70F1E73D1D39683000FFF739
:1004A000C1FF2F002EE03D1D38686A460A21FFF784
:1004B00093FF01003000FFF7B5FF2F0022E03B1D46
:1004C00098463D68002D05D130213000FFF79EFF92
:1004D000474617E015493000FFF7A4FF6A46102190
:1004E0002800FFF779FF01003000FFF79BFF474628
:1004F00008E011003000FFF789FF03E03000FFF74C
:1005000085FF2C00651C61780029A3D02529F5D131
:100510006A78002AF2D06C1C1300633BD9B215290B
:10052000E7D88B000249CB589F46C046040900001B
:100530009808000010B5037800242D2B15D0017801
:100540000B00303B0022092B0BD8013093009B1885
:100550005B005B18303B1A0001780B00303B092B25
:10056000F3D91000002C03D110BD01300134E6E7AF
:100570005042F9E70200002007E01900613905291F
:100580000CD8000157381818013213781900303987
:100590000929F2D8000130381818F5E7704700B57E
:1005A00083B00090002301936846FFF749FF03B032
:1005B00000BD0EB430B584B0040007AA02CA0025FD
:1005C00002950390019202A8FFF73AFF039B5A1C81
:1005D00003921D700398001B04B030BC08BC03B02C
:1005E0001847C04672B60C4B0C4A1A600C4A802061
:1005F000C001002110600B4BC046C046C046013B05
:10060000002BF9D11160084BC046C046C046013BE3
:10061000002BF9D1EEE7C04614050050F0FF0000B2
:100620000405005040420F00400D030010B5FFF7D5
:10063000D9FF10BD704710B5164A136803210B434C
:100640001360154A154B9A420DD20333144A9B1A74
:100650009B0801339B0000220F4812498C5884509C
:1006600004329A42FAD1104A104B9A4209D2111D13
:1006700003335B1A032083435B18002102C29A42B2
:10068000FCD1FFF7D7FFFFF760FEFFF7D3FF20BFD6
:10069000FDE7C046240500400000002000000020C7
:1006A000040000200809000000000020CC0F0020FA
:1006B00070B5002812DB83109B00134A94466344F4
:1006C0001C68C000FF221600864003252E40B4435C
:1006D0000A4082402A4022431A6070BD030008335A
:1006E0009B109B00094A944663441C68C000FF228B
:1006F0001600864003252E40B4430A4082402A401B
:1007000022431A60E9E7C04600E400E01CED00E087
:1007100001238340014A13607047C04600E100E0B6
:1007200001238340014A13607047C04680E100E026
:1007300001238340014A13607047C04680E200E015
:10074000002243088B4274D303098B425FD3030A10
:100750008B4244D3030B8B4228D3030C8B420DD323
:10076000FF22090212BA030C8B4202D312120902B1
:1007700065D0030B8B4219D300E0090AC30B8B42EF
:1007800001D3CB03C01A5241830B8B4201D38B039D
:10079000C01A5241430B8B4201D34B03C01A524142
:1007A000030B8B4201D30B03C01A5241C30A8B4285
:1007B00001D3CB02C01A5241830A8B4201D38B0270
:1007C000C01A5241430A8B4201D34B02C01A524114
:1007D000030A8B4201D30B02C01A5241CDD2C30986
:1007E0008B4201D3CB01C01A524183098B4201D302
:1007F0008B01C01A524143098B4201D34B01C01AED
:10080000524103098B4201D30B01C01A5241C30864
:100810008B4201D3CB00C01A524183088B4201D3D3
:100820008B00C01A524143088B4201D34B00C01ABF
:100830005241411A00D20146524110467047FFE72B
:1008400001B5002000F00CF802BDC0460029F7D029
:1008500003B5FFF775FF0EBC4243891A1847C0461F
:100860007047C04625642077617320726F6C6C6599
:10087000642025752074696D65730D0A0000000001
:10088000362077617320726F6C6C6564202575204B
:1008900074696D65730D0A005C0400006A04000051
:1008A000F2040000F2040000F2040000F204000070
:1008B000F2040000F2040000F2040000F204000060
:1008C000F2040000F2040000F2040000F204000050
:1008D000F2040000F204000098040000F20400009A
:1008E000A6040000F2040000F2040000BE040000B0
:1008F0003031323334353637383961626364656696
:08090000000000003078000047
:00000001FF
