:10000000004000206B040000610400006104000057
:10001000190400001904000019040000190400006C
:100020001904000019040000190400006104000014
:1000300019040000190400006104000061040000BC
:10004000610400006104000061040000610400001C
:100050006104000019040000610400006104000054
:10006000610400004D010000610400006104000013
:1000700061040000610400006104000061040000EC
:1000800061040000610400006104000061040000DC
:1000900061040000610400006104000061040000CC
:1000A000610400006104000019040000190400004C
:1000B00019040000190400001904000019040000CC
:1000C00010B51F4B1A68501C1860D12811D9EF28A1
:1000D00018D90E23FF3398421ED92C23FF339842A0
:1000E00023D996235B0098420BD1154B00221A604E
:1000F00007E0032100F0C4FA8900124BCA58124BE2
:100100001A6010BD032100F0BBFA8B000D49C9181D
:10011000CA680D4B1A60F4E7032100F0B1FA8900B8
:10012000084BCA58084B1A60EBE7032100F0A8FA05
:100130008B000449C918CA68034B1A60E1E7C0463E
:1001400000000020980600000405005010B5054B83
:100150001B68002B00D110BDFFF7B2FF014B00223E
:100160001A60F8E74091004010B501230F4A136070
:1001700000220F490A600F490A600F4A04211160EA
:100180000E4A13600E4A0F4911600F4A13600F4A5E
:100190008021490211600E4A13600321092000F0FA
:1001A000A1F9092000F0CEF910BDC046049000402E
:1001B0000495004008950040109500400C900040C8
:1001C00040950040881300000092004004930040D6
:1001D0000090004010B5074B074A1A600023074AF9
:1001E0001360074A1360074B074A1A60FFF7BCFF0A
:1001F00020BFFDE714050050F0FF00004407005049
:100200006807005004050050F0280000F8B504000D
:100210000E0015000F350023D373084F013D310048
:10022000200000F02DFA7B5C2B703100200000F0E4
:10023000A1F9041EF2D12800F8BDC046080700004D
:1002400010B50368002B02D00800984710BD436822
:100250005A1C42601970F9E770B505000C00097866
:10026000002906D02800FFF7EBFF01342178002990
:10027000F8D170BDF0B5C64600B584B006000D00DB
:100280001700097800295BD104B004BC9046F0BD8A
:100290003D1D39783000FFF7D3FF2F004CE03D1DA6
:1002A0003868002809DB6A460A21FFF7AFFF010022
:1002B0003000FFF7D1FF2F003EE040426A460A219E
:1002C000FFF7A4FF411E2D230B70F1E73D1D396898
:1002D0003000FFF7C1FF2F002EE03D1D38686A4651
:1002E0000A21FFF793FF01003000FFF7B5FF2F0051
:1002F00022E03B1D98463D68002D05D1302130009D
:10030000FFF79EFF474617E015493000FFF7A4FFAF
:100310006A4610212800FFF779FF01003000FFF73F
:100320009BFF474608E011003000FFF789FF03E01C
:100330003000FFF785FF2C00651C61780029A3D0F1
:100340002529F5D16A78002AF2D06C1C1300633B92
:10035000D9B21529E7D88B000249CB589F46C04631
:100360001C070000B006000010B5037800242D2BF8
:1003700015D001780B00303B0022092B0BD801303F
:1003800093009B185B005B18303B1A0001780B0050
:10039000303B092BF3D91000002C03D110BD0130E4
:1003A0000134E6E75042F9E70200002007E01900B7
:1003B000613905290CD80001573818180132137813
:1003C000190030390929F2D8000130381818F5E73A
:1003D000704700B583B00090002301936846FFF793
:1003E00049FF03B000BD0EB430B584B0040007AAC5
:1003F00002CA002502950390019202A8FFF73AFF76
:10040000039B5A1C03921D700398001B04B030BC60
:1004100008BC03B01847C04672B60C4B0C4A1A60B1
:100420000C4A8020C001002110600B4BC046C04622
:10043000C046013B002BF9D11160084BC046C046B5
:10044000C046013B002BF9D1EEE7C0461405005031
:10045000F0FF00000405005040420F00400D030073
:1004600010B5FFF7D9FF10BD704710B5164A1368D5
:1004700003210B431360154A154B9A420DD20333E7
:10048000144A9B1A9B0801339B0000220F48124913
:100490008C58845004329A42FAD1104A104B9A4236
:1004A00009D2111D03335B1A032083435B1800211B
:1004B00002C29A42FCD1FFF7D7FFFFF78BFEFFF78E
:1004C000D3FF20BFFDE7C046240500400000002008
:1004D0000000002004000020200700000000002091
:1004E0000400002070B5002812DB83109B00134A23
:1004F000944663441C68C000FF2216008640032512
:100500002E40B4430A4082402A4022431A6070BD04
:10051000030008339B109B00094A944663441C68FF
:10052000C000FF221600864003252E40B4430A4037
:1005300082402A4022431A60E9E7C04600E400E016
:100540001CED00E001238340014A13607047C04660
:1005500000E100E001238340014A13607047C04678
:1005600080E100E001238340014A13607047C046E8
:1005700080E200E0002243088B4274D303098B42DF
:100580005FD3030A8B4244D3030B8B4228D3030C63
:100590008B420DD3FF22090212BA030C8B4202D305
:1005A0001212090265D0030B8B4219D300E0090A2D
:1005B000C30B8B4201D3CB03C01A5241830B8B4236
:1005C00001D38B03C01A5241430B8B4201D34B031F
:1005D000C01A5241030B8B4201D30B03C01A524184
:1005E000C30A8B4201D3CB02C01A5241830A8B4209
:1005F00001D38B02C01A5241430A8B4201D34B02F2
:10060000C01A5241030A8B4201D30B02C01A524155
:10061000CDD2C3098B4201D3CB01C01A5241830909
:100620008B4201D38B01C01A524143098B4201D343
:100630004B01C01A524103098B4201D30B01C01A6E
:100640005241C3088B4201D3CB00C01A52418308E8
:100650008B4201D38B00C01A524143088B4201D315
:100660004B00C01A5241411A00D201465241104675
:100670007047FFE701B5002000F00CF802BDC0464E
:100680000029F7D003B5FFF775FF0EBC4243891A66
:100690001847C0467047C046F0280000005E0000C2
:1006A00060800000F02D0000B05F0000F08A0000C4
:1006B000900200009E0200002603000026030000B6
:1006C0002603000026030000260300002603000086
:1006D0002603000026030000260300002603000076
:1006E0002603000026030000260300002603000066
:1006F000CC02000026030000DA02000026030000FE
:1007000026030000F2020000303132333435363730
:10071000383961626364656600000000307800006B
:00000001FF
