:1000000000400020E3140000D91400005D0E000041
:100010003B1200003B1200003B1200003B120000AC
:100020003B1200003B1200003B1200002B120000AC
:100030003B1200003B120000D9140000D91400004C
:10004000D9140000D9140000D9140000D9140000FC
:10005000D91400003B120000D9140000D91400008C
:10006000D9140000D9140000D9140000D9140000DC
:10007000D9140000D9140000D9140000D9140000CC
:10008000D9140000D9140000D9140000D9140000BC
:10009000D9140000D9140000D9140000D9140000AC
:1000A000D9140000D91400003B1200003B120000DC
:1000B0003B1200003B1200003B1200003B1200000C
:1000C0004003090108437047F0B5DE4657464646EF
:1000D000C0B582B001908B46002601239A4619488C
:1000E00021E001320133182A14DC1C782500303D50
:1000F000012DF7D895002D584545F2D1302CF0D17F
:100100009400104DAC466444646E013C5546A540D5
:100110002943E6E7B6007F030B011F435B469F516F
:10012000009E032E08D0731C009398465746B74094
:10013000019B00220021D8E702B01CBC90469A46E1
:10014000A346F0BD081B0000F0B5CE46474680B57B
:1001500097B000230393029301932E4A2E49116016
:100160002E4A13602E4A1360012000F051FD12A99F
:1001700003230B8002334B60043B8B60022000F0B2
:100180002BFD0023994600270F33984629E013984A
:10019000002304A9C25C5A540133192BFAD120E080
:1001A00001239C46E1444B46802B29D17F3B994655
:1001B00026E0CE540133192B09D05C54DA5D312A84
:1001C000F7D0322AF6D1002DF4D15E54F2E701A91E
:1001D0000BA8FFF779FF0027BB0001AA9A58114B23
:1001E0001A6012A9104800F0FEFC6B4648229B18CA
:1001F0001B887B2BCBD00137032FD1D0002FEBD125
:1002000000230BA9302404AF45464A461540312649
:10021000D3E7C04614050050F0FF0000440700502B
:100220006807005004050050E703000000B585B0E2
:100230007B236A46138001906946132000F0CCFCB2
:1002400005B000BD70B584B01E4B1B68192B26D0BD
:100250001D4B1B6858105840192101F04FFC0C0031
:10026000184B5B1820229B5C302B0AD0154E2025A2
:10027000601C192101F042FC0C0073185B5D302BEF
:10028000F6D10521200001F053FB104B1860052129
:10029000200001F033FC0E4B196004B070BD6233D6
:1002A0006A461380074B043301936946132000F01C
:1002B00093FC084800F054FB6946022000F093FCD0
:1002C000FAE7C046000000209C050020140600202C
:1002D0001C060020541C000010B50023074A1360C0
:1002E000074A1360074B01221A600223064A136073
:1002F000064A1360064800F033FB10BD9C05002041
:1003000018060020000000201C0600201406002013
:10031000601C0000F0B583B04A4BDB6B002B07D0AC
:10032000494B1A689200494B9B189A6C484B1A60CB
:10033000454B1C68464B1B689B00464EF618052132
:10034000200001F0F5FAF36A9C466044053005216F
:1003500001F0D4FB0D000521200001F0CFFBF06B74
:1003600008180530052101F0C9FB01913A4B1B68C3
:10037000AB425CD0334B1868431E002B0ADD374B71
:10038000C3189B00304A9B18043A19685960043B13
:100390009342FAD1AA005219019B9C4662442A4B0F
:1003A0001A6001280DDD5B689A4208D00123264EB1
:1003B0000133984205D0990071588A42F8D1FFF76D
:1003C0008BFF204A1300203339323021197001335A
:1003D0009342FBD11B4B1968002909DD1A4B890098
:1003E000C91818482030312604CB86549942FBD1D5
:1003F000144E194F3A681A4C93009B18F318203387
:10040000322221685A5430002030FFF70FFF316844
:10041000144800F0A5FA019A2900134800F0A0FA48
:1004200022683968114800F09BFA03B0F0BD0C4B0C
:100430001B688B429ED1034A136801331360FFF798
:1004400001FF97E7000000209C050020881B0000AA
:1004500018060020081C000014060020FEFFFF3FC5
:100460001C0600206C1C0000801C0000901C00007A
:1004700070B586B002A9162000F0B5FB032302AACE
:1004800013801C4B1B6C01930393012304931100F5
:10049000022000F0A1FBFFF71FFF174C154E35009F
:1004A00016E0FFF737FF134B01225A6402AB1B889B
:1004B0005F2B0DD123680433039A94466344D91704
:1004C000890F5B18032213405B1A236000237364B7
:1004D00002A90A4800F087FB02AB02229B5E022BB6
:1004E000DFD002AB1B885F2BF2D16B6C002BEFD0FF
:1004F000E0E7C0460000002018060020E7030000E7
:1005000010B584B003236A4613802F33019301246E
:1005100002946946022000F05FFB0D4BDC63FFF79D
:10052000DBFEBA346946022000F05DFBFFF7F2FE05
:10053000013C002CF6D1064B0022DA6369461420F8
:1005400000F04AFB034C6946200000F04CFBFAE740
:1005500000000020E7030000024B1B685B0C012039
:100560009843704710050050024B1B689B0E0120FA
:100570009843704710050050F0B585B001265F27FD
:1005800000250BE0012609E001235B4201936B4645
:100590001F806946142000F01FFB2E00FFF7DCFFD0
:1005A0000400FFF7E1FF23000343EBD0002EF5D05A
:1005B000002C02D00028E7D0F0E701230193E6E702
:1005C00010B582B000F0E9F901F0DAF88024E40017
:1005D000009400230D4A0E49132000F0B5FB00944F
:1005E00000230C4A0C49162000F0AEFB00940023B7
:1005F0000A4A0B49142000F0A7FB00940023094A83
:100600000949152000F0A0FB02B010BD490100000F
:10061000A01C000001050000A81C000071040000DF
:10062000B01C000079050000B81C000010B5074B95
:100630001B68802B09D005494A68054CA05401323B
:100640007F2002404A6001330B6010BD540000203F
:100650007000002010B584B004000A2809D00623D9
:100660006A46138001946946012000F0B5FA04B08F
:1006700010BD06236A4613800733019369460120A3
:1006800000F0AAFAEBE710B584B01D4B18680028FB
:1006900003DB1C4B9B68002B19DC194B5B68002BA0
:1006A00013D0184B1B68002B0FDD164B1A69164927
:1006B000885C1649086001327F210A401A611A6875
:1006C000013A1A600E4B00225A6004B010BD052397
:1006D0006A4613800B4C0E4BE2689B5C01936946A3
:1006E00000F07AFAE3685A1C7F231340E360A368A2
:1006F000013BA360024B012252421A60CDE7C04683
:100700004800002054000020700000201C250040FC
:10071000F000002070B5384B1B68002B10D1374B10
:100720001B68002B05D0364B01225A60334B002248
:100730001A60022000F052FF022000F03FFF70BD5F
:10074000304B1868C0B20A2835D01AD802284DD0CC
:1007500008281AD00300203B5E2B49D82A4B5A693F
:100760009B68D318802B43D027498B69274CE054D2
:1007700001337F2423408B6101324A61FFF756FF2A
:1007800036E00D2817D07F28E4D11F4B5B69002B82
:100790002EDD1D4A013B53619369591E7F230B4097
:1007A00093610820FFF742FF2020FFF73FFF08205A
:1007B000FFF73CFF1CE0144A91685369CA18802A6D
:1007C00016D0114A9069114C0A25255401307F2416
:1007D0002040906101335B189360002353610D202A
:1007E000FFF724FF0A20FFF721FF01E000F017FACE
:1007F000014B00221A6092E7082100401C210040B2
:10080000480000201825004054000020F00000207F
:10081000F0B5C64600B584B03C48002303603C4AAE
:100820008021490411603B4A8021890411603A4AC1
:1008300011680C242143116038490A6822430A6078
:10084000374A38491160384A1360384A1821116014
:10085000374A01311160042202600B3C354A1460B2
:10086000354A1460354A1360354A1360022000F09F
:10087000C8F9344B84221A60022000F09FFE324BEC
:100880005C60324F3D003E0003E0FFF743FFFFF79F
:10089000FAFE69462E4800F0A6F96B46198806292B
:1008A00015D0072905D00129EFD02A4800F0D6F944
:1008B000EDE76B4602241C5F234B1B68002B02DA1A
:1008C000214B1C60E3E7244800F0C8F9F8E7019BDE
:1008D000DBB298463B68802B0CD101246442694608
:1008E000200000F080F9FFF715FFFFF7CCFE2B6822
:1008F000802BF4D0726819494046885401327F2118
:100900000A40726001333360C1E7C04600250040F1
:10091000180500501C050050600700506407005087
:1009200024250040005027006C2500400C25004085
:10093000142500400820004000200040082100400D
:100940001C210040042300404800002054000020E7
:10095000E7030000E81C0000C01C0000700000203D
:100960000FB400B583B004AA02CA0192034800F094
:100970006CFD03B008BC04B01847C0465506000023
:1009800000B585B007236A4613806946012000F050
:1009900031F96B46187905B000BD00B583B08023EE
:1009A000DB0000930023034A0349012000F0CCF947
:1009B00003B000BD110800000C1D00000E4B1B68A9
:1009C000834213D00123036100234363036AD900E8
:1009D000094A52185268002A09D0D900064A52180A
:1009E00092685063DB00044AD31898607047024A4B
:1009F00052185060F6E7C046700100200D4B5B684E
:100A0000002B0ED10B4BDB68002B08D1094B5B6927
:100A10000221002B06D1074B1A68DA6170470121C9
:100A200000E00021034AD361C90052185B6B536098
:100A3000F4E7C0467001002010B5FA231B01C04640
:100A4000C046C046013B002BF9D115480022026088
:100A5000144B802149041960134B802189041960CB
:100A6000124B19680C242143196011490B68234368
:100A70000B60104B10491960104B1A60104B182175
:100A80001960104B0131196004230360033B0E49C8
:100A90000B600E490B600E490A600E4A136210BDCE
:100AA00000250040180500501C050050600700504C
:100AB0006407005024250040005027006C250040AA
:100AC0000C25004014250040082000400020004074
:100AD0000821004070010020074B1B6A002B03D146
:100AE000064A1368002BFCD0054B18600023034A0C
:100AF0001360014A13627047700100201C210040FE
:100B00001C2500400FB400B583B004AA02CA0192AC
:100B1000034800F09AFC03B008BC04B01847C04674
:100B2000D90A000010B500220021042000F090FB3B
:100B300010BD70B5C3001B1ADB00144AD3181B6923
:100B4000032B07D0C300181AC000104B181801233C
:100B5000836270BDC3001B1ADB00D318DB6A0C4A2A
:100B6000934201D00133EDD10849C3001A1AD200D3
:100B70008A1801246442156B6C80126B0234148055
:100B8000181AC0004018FFF719FFE2E7140200200E
:100B9000E703000010B5034BD869FFF70FFFFFF71D
:100BA0002DFF10BD7001002010B5034BDB695869A3
:100BB000024900F01DFB10BD70010020CF0B0000AA
:100BC00010B500220021002000F042FB10BD10B53E
:100BD000FFF7F6FF20BFFDE710B50A000100012076
:100BE00000F036FB10BD10B50A000100022000F035
:100BF0002FFB10BD10B50A000100032000F028FBF8
:100C000010BD10B501000022052000F021FB10BD31
:100C100010B501000022062000F01AFB10BD10B52F
:100C200000220021072000F013FB10BD0FB430B5E7
:100C300083B006AC20CC00F00DFBFFF7FDFE019465
:100C400022002900044800F000FC00F00BFB03B078
:100C500030BC08BC04B01847D90A00000FB430B546
:100C600083B006AC20CC00F0F5FAFFF7E5FE0948AA
:100C7000FFF748FF019422002900074800F0E5FB38
:100C80000648FFF73FFF00F003FC03B030BC08BC90
:100C900004B01847341D0000D90A0000401D0000B0
:100CA00010B5C41C03239C43074B1A68074B9B1ABF
:100CB000A34204DB044B186804191C6010BD0448EF
:100CC000FFF7CCFFF6E7C0465000002000380020B8
:100CD000441D000070B5174B174A1A608020C000F1
:100CE000FFF7DEFF06008023DB00C518A84204D210
:100CF0000300124A04C39D42FCD10F4C104920004E
:100D000000F07CFD6561A6618023DB00E3610123C7
:100D100023610133236200236362A362094AE26212
:100D200023636363034A1368052119610239196259
:100D3000D36170BD7001002014020020EFBEADDE53
:100D40005C1D0000E7030000F0B5DE46474680B5B5
:100D500083B00700019193469846C5002D1AED0017
:100D6000214BEB1800930A9BDE1C03239E433000AB
:100D7000FFF796FF05008419A04204D203001B4A26
:100D800004C39C42FCD80199009800F037FD164935
:100D9000F800C21BD2008B189D61DE6101221A612E
:100DA00001321A6200225A629A62114EDE621A639E
:100DB0005A63C31BDB00CB182200403A5A61231F41
:100DC000802252041A60043B5A461A60043B094AC6
:100DD0001A60203C434623600098FFF7EFFD03B004
:100DE0000CBC90469B46F0BD14020020EFBEADDE69
:100DF000E7030000250B000070B50D1E134BDB69E7
:100E0000586104DB8B00124A9C58002C04D1290045
:100E10001048FFF723FF0024280000F0D7FB200034
:100E2000FFF787FE094BDB691B6A002B07DDE30038
:100E30001C1BE400084B1C192369012B03D0034B36
:100E4000DB69586970BDFFF7A5FEF8E77001002067
:100E500094010020641D00001402002010B5024817
:100E6000FFF7FCFE10BDC0467C1D0000F0B5D64665
:100E70004F464646C0B58AB0016A446A2200866A77
:100E8000CA4BDD696861072900D9ABE18900C84B0D
:100E90005B589F46FFF77EFEC44BDB6958690AB07A
:100EA0001CBC90469946A246F0BDC24AA91AC91078
:100EB000CB005B1898011B18DB005B18D8031B18CC
:100EC000DB005B185B427380E100091BC90052180C
:100ED0001269032A13D002232B612E6300236B6354
:100EE000E3001B1BDB00B34AD3185A6A002A22D145
:100EF000E3001C1BE400AF4B1C1965621FE00A00F5
:100F0000AC498A18D26AAC498A4201D09342E2D1F4
:100F1000A84AE3001B1BDB00D3181B6B23CE23C3A3
:100F2000190033680B60E000001BC0008018FFF759
:100F300045FDB1E71A00536B002BFBD15563FFF75A
:100F40005DFDA9E7AB6A002B16D09B4B9C420CD0F1
:100F5000631C0AD06B6A9A46002B16D103232B61BF
:100F6000EC622E63FFF74AFD96E70023AB62013B7C
:100F70007380023333808FE7631CEFD06B6A9A462D
:100F8000002BEBD08C4B9C423DD08A4B994651466E
:100F9000C81AC010C3001B1899018C466344DB00BB
:100FA0001B18D9038C466344DB001B185B429A4232
:100FB0002DD05346586B0028D0D04B46C71AFF108F
:100FC000FB00DB19990188464344DB00DB19D90398
:100FD00088464344DB00DB195B429A4201D08246DB
:100FE000E7E75346002B0FD0436B52465363320062
:100FF000036B32CB32C21B6813600369042B08D128
:10100000013B036148E75046436B6B62EFE7504694
:10101000FAE7FFF7D3FC3FE7664AA91AC910CB00ED
:101020005B1898011B18DB005B18D8031B18DB004A
:101030005B185B427380EC622E63E100091BC90000
:1010400052181269032A12D004232B6100236B6308
:10105000E3001B1BDB00574AD3185A6A002A24D12D
:10106000E3001C1BE400534B1C19656221E00A00DD
:1010700050498A18D26A50498A4201D09342E3D13A
:101080004C4AE3001B1BDB00D3181B6B83CE83C3CE
:10109000190033680B6003232B61E000001BC000C4
:1010A0008018FFF78BFC04E01A00536B002BFBD178
:1010B0005563FFF7A3FCEFE600232B61FFF79EFCCF
:1010C000EAE6002C15DB394BDB6900221A62A4002A
:1010D000384A9A1AD210D3009B1899015B18DB008A
:1010E0009B18D9035B18DB009B185B42334AA35063
:1010F000D2E63348FFF7B2FDE5E7022C03D82B4BCD
:10110000DB691C62C8E621002E48FFF7A7FDF6E761
:10111000FFF792FC2C48FFF7F5FC264D00262B4BE1
:10112000984621E022002DE03200294902A800F073
:1011300096F9FB691A1B274906A800F090F906A842
:1011400000F064FB082826DDBB6942463969525C21
:10115000019706A9009102A91F48FFF7D3FC0136A9
:101160003835102E00D197E62F002B78002BF6D0C3
:10117000AC691A4B22689A42D4D122000432116819
:101180009942FBD0141B092ECEDC3200144902A870
:1011900000F065F9CDE70922121A06AC20182021CB
:1011A00000F024FB00236372CEE7C04670010020EC
:1011B000141D000014020020E70300009401002029
:1011C000881D0000A81D0000BC1D0000D81D0000E7
:1011D000081E0000D01D0000E01D0000EFBEADDEC7
:1011E000781D00000148FFF739FD55E6F81D0000A5
:1011F00080F30988022080F31488BFF36F8F0847BB
:10120000EFF309801038F0C044464D4656465F461D
:101210002038F0C010387047F0C8A046A946B24642
:10122000BB46F0C880F30988704700B5FFF7E8FFB8
:10123000FFF71CFEFFF7F0FF00BD00B5FFF7E0FF72
:10124000EFF305811039FFF7D7FDFFF7E5FF00BD8C
:1012500000DF7047EFF310800549086072B67047F1
:1012600062B670470249086880F310887047000032
:1012700094050020F8B504000E0015000F3500237A
:10128000D373084F013D3100200000F04DFB7B5C23
:101290002B703100200000F0C1FA041EF2D12800AA
:1012A000F8BDC046641E000010B50368002B02D0D4
:1012B0000800984710BD43685A1C42601970F9E74E
:1012C00070B505000C000978002906D02800FFF74A
:1012D000EBFF013421780029F8D170BDF0B5C64686
:1012E00000B584B006000D001700097800295BD115
:1012F00004B004BC9046F0BD3D1D39783000FFF7C6
:10130000D3FF2F004CE03D1D3868002809DB6A46FA
:101310000A21FFF7AFFF01003000FFF7D1FF2F00D8
:101320003EE040426A460A21FFF7A4FF411E2D23FA
:101330000B70F1E73D1D39683000FFF7C1FF2F004A
:101340002EE03D1D38686A460A21FFF793FF010031
:101350003000FFF7B5FF2F0022E03B1D98463D68A7
:10136000002D05D130213000FFF79EFF474617E0E2
:1013700015493000FFF7A4FF6A4610212800FFF747
:1013800079FF01003000FFF79BFF474608E011009E
:101390003000FFF789FF03E03000FFF785FF2C00E6
:1013A000651C61780029A3D02529F5D16A78002A27
:1013B000F2D06C1C1300633BD9B21529E7D88B001F
:1013C0000249CB589F46C046781E00000C1E000004
:1013D00010B5037800242D2B15D001780B00303B7D
:1013E0000022092B0BD8013093009B185B005B187F
:1013F000303B1A0001780B00303B092BF3D9100069
:10140000002C03D110BD01300134E6E75042F9E76A
:101410000200002007E01900613905290CD80001FD
:101420005738181801321378190030390929F2D8C1
:10143000000130381818F5E719004139052903D89B
:10144000000137381818EDE7704700B583B00090F9
:10145000002301936846FFF741FF03B000BD0EB4BF
:1014600030B584B0040007AA02CA00250295039093
:10147000019202A8FFF732FF039B5A1C03921D70D2
:101480000398001B04B030BC08BC03B01847C0462A
:1014900072B60C4B0C4A1A600C4A8020C001002125
:1014A00010600B4BC046C046C046013B002BF9D133
:1014B0001160084BC046C046C046013B002BF9D125
:1014C000EEE7C04614050050F0FF00000405005090
:1014D00040420F00400D030010B5FFF7AEFE10BDF7
:1014E000704710B5164A136803210B431360154A61
:1014F000154B9A420DD20333144A9B1A9B080133B1
:101500009B0000220F4812498C58845004329A42A2
:10151000FAD1104A104B9A4209D2111D03335B1ABB
:10152000032083435B18002102C29A42FCD1FFF7DB
:10153000D1FBFFF745F8FFF737FB20BFFDE7C046BB
:10154000240500400000002054000020040000207A
:10155000C01E0000540000205006002070B5002876
:1015600012DB83109B00134A944663441C68C0003E
:10157000FF221600864003252E40B4430A408240D5
:101580002A4022431A6070BD030008339B109B0061
:10159000094A944663441C68C000FF221600864036
:1015A00003252E40B4430A4082402A4022431A6059
:1015B000E9E7C04600E400E01CED00E001238340C1
:1015C000014A13607047C04600E100E001238340F8
:1015D000014A13607047C04680E100E00123834068
:1015E000014A13607047C04680E200E0F0B5D6467D
:1015F0004F464646C0B588B00123514A13600022C9
:1016000050490A6050490A60504A04211160504A0A
:101610001360504A50491160504A1360504A80216B
:10162000490211604F4A13600920FFF7EAFA0920C6
:10163000FFF7C4FF4C4B9A461D0009E04B4B1B685B
:10164000002B13D10920FFF7C9FF0920FFF7B6FFD0
:1016500004AC21004648FFF7C6FA2388012BEDD0E1
:10166000032B2ED04348FFF7F9FAF1E753461B68E6
:101670000533524613603D4B00221A603E4C302326
:101680009846A0442C3B994605E001235B42236029
:101690000C344445D6D020680028F9DBA3682A68BA
:1016A0009342F5D86A464946118001936946FFF78F
:1016B00093FA6368002BE8D0A26894466344A36061
:1016C000E6E704AB02215A5E9046059C069F2A4B32
:1016D0001B68002B27DB284BDB68002B2BDB264B02
:1016E0009B69002B29DB244B5B6A0322002B03DB65
:1016F0002248FFF7B3FA04221F49530098188000CC
:1017000046464650184800689B189B00CB180019A5
:101710009860002F09D153009A189200164B9A181E
:101720000023536094E70022E6E753009A189200E2
:101730008A1854608CE70122DEE70222DCE7C0460B
:10174000049000400495004008950040109500402A
:101750000C9000404095004088130000009200402B
:101760000493004000900040980500204091004004
:10177000E70300007C1E000020060020941E0000ED
:1017800000B583B0084B012252421A60DA609A61B8
:101790005A628023DB0000930023044A044902209C
:1017A000FFF7D2FA03B000BD20060020ED150000BF
:1017B000A41E000000B585B003236A461380FA21F9
:1017C000890000F0B5F801900023029369460220D9
:1017D000FFF710FA6B461B88042B02D00248FFF774
:1017E0003DFA05B000BDC046AC1E00000300121853
:1017F000934200D1704719700133F9E703000A786A
:1018000001311A700133002AF9D170470023C25CFC
:101810000133002AFBD1581E704700000022430804
:101820008B4274D303098B425FD3030A8B4244D3A8
:10183000030B8B4228D3030C8B420DD3FF220902EA
:1018400012BA030C8B4202D31212090265D0030BA9
:101850008B4219D300E0090AC30B8B4201D3CB039F
:10186000C01A5241830B8B4201D38B03C01A5241E1
:10187000430B8B4201D34B03C01A5241030B8B42E3
:1018800001D30B03C01A5241C30A8B4201D3CB02CE
:10189000C01A5241830A8B4201D38B02C01A5241B3
:1018A000430A8B4201D34B02C01A5241030A8B42B6
:1018B00001D30B02C01A5241CDD2C3098B4201D3CE
:1018C000CB01C01A524183098B4201D38B01C01A4C
:1018D000524143098B4201D34B01C01A52410309C3
:1018E0008B4201D30B01C01A5241C3088B4201D372
:1018F000CB00C01A524183088B4201D38B00C01A1F
:10190000524143088B4201D34B00C01A5241411A45
:1019100000D20146524110467047FFE701B5002052
:1019200000F0F0F802BDC0460029F7D076E7704716
:1019300003460B437FD4002243088B4274D3030930
:101940008B425FD3030A8B4244D3030B8B4228D3D1
:10195000030C8B420DD3FF22090212BA030C8B42F7
:1019600002D31212090265D0030B8B4219D300E097
:10197000090AC30B8B4201D3CB03C01A5241830B1C
:101980008B4201D38B03C01A5241430B8B4201D3CC
:101990004B03C01A5241030B8B4201D30B03C01AF5
:1019A0005241C30A8B4201D3CB02C01A5241830A6F
:1019B0008B4201D38B02C01A5241430A8B4201D39E
:1019C0004B02C01A5241030A8B4201D30B02C01AC8
:1019D0005241CDD2C3098B4201D3CB01C01A52412F
:1019E00083098B4201D38B01C01A524143098B42B8
:1019F00001D34B01C01A524103098B4201D30B01A1
:101A0000C01A5241C3088B4201D3CB00C01A5241C5
:101A100083088B4201D38B00C01A524143088B428A
:101A200001D34B00C01A5241411A00D20146524123
:101A3000104670475DE0CA0F00D04942031000D342
:101A40004042534000229C4603098B422DD3030A97
:101A50008B4212D3FC22890112BA030A8B420CD3A7
:101A6000890192118B4208D3890192118B4204D3D0
:101A700089013AD0921100E08909C3098B4201D350
:101A8000CB01C01A524183098B4201D38B01C01A8A
:101A9000524143098B4201D34B01C01A5241030901
:101AA0008B4201D30B01C01A5241C3088B4201D3B0
:101AB000CB00C01A524183088B4201D38B00C01A5D
:101AC0005241D9D243088B4201D34B00C01A524134
:101AD000411A00D20146634652415B10104601D3C1
:101AE0004042002B00D54942704763465B1000D34B
:101AF000404201B5002000F005F802BD0029F8D0F1
:101B000016E770477047C046010000000200000061
:101B100001000000020000000100000003000000BE
:101B200003000000030000000300000003000000A9
:101B3000020000000100000002000000030000009D
:101B40000200000001000000010000000100000090
:101B5000010000000100000003000000020000007E
:101B6000030000000200000003000000010000006C
:101B70000400000002000000050000000300000057
:101B8000040000000500000006000000070000003F
:101B9000080000000200000009000000030000002F
:101BA000090000000100000008000000070000001C
:101BB0000600000005000000040000000300000013
:101BC0000700000001000000060000000200000005
:101BD00003000000010000000200000001000000FE
:101BE00002000000030000000200000003000000EB
:101BF00002000000030000000000000000000000E0
:101C000000000000000000000300000003000000CE
:101C100002000000020000000200000002000000BC
:101C200000000000000000000000000000000000B4
:101C300003000000000000000100000000000000A0
:101C4000FFFFFFFF0100000000000000FFFFFFFF9B
:101C50000000000057656C6C20646F6E6521000009
:101C600047616D652072657365740A00536E616B20
:101C700065204C656E6774683A2025643B2000003F
:101C8000486561643A2025642025643B20000000FB
:101C90005461726765743A2025642025640A000047
:101CA000446973706C617900536C6964650000006D
:101CB000536E616B65000000427574746F6E730043
:101CC00054776F2063616E6E6F7420776169742042
:101CD000666F722074686520696E70757420617417
:101CE000206F6E636500000073657269616C20642B
:101CF000726976657220676F7420626164206D6519
:101D00007373616765202564000000005365726984
:101D1000616C0000940E0000AA0E0000440F000049
:101D200018100000B8100000C2100000FA100000E7
:101D3000101100000D0A50616E69633A2000000026
:101D40000D0A000043616E277420616C6C6F636143
:101D500074652073746F72616765000049444C4577
:101D600000000000556E65787065637465642069D5
:101D70006E746572727570742025640048617264B7
:101D80004661756C7400000043616E277420636FB8
:101D90006E6E65637420746F2043505520657863C0
:101DA000657074696F6E7300426164207072696F50
:101DB000726974792025750A000000000D0A5052DE
:101DC0004F434553532044554D500D0A0000000029
:101DD00025752F25750000005A41535242490000D5
:101DE00025733A205B25635D2025782073746B3D55
:101DF00025732025730D0A00556E6B6E6F776E206C
:101E000073797363616C6C2025640000F812000024
:101E1000061300008E1300008E1300008E130000C6
:101E20008E1300008E1300008E1300008E1300002E
:101E30008E1300008E1300008E1300008E1300001E
:101E40008E1300008E1300008E1300003413000068
:101E50008E130000421300008E1300008E1300004A
:101E60005A13000030313233343536373839616235
:101E700063646566000000003078000054696D6599
:101E80007220676F7420626164206D65737361678F
:101E900065000000546F6F206D616E792074696D6C
:101EA0006572730054696D657200000064656C6151
:101EB0007920676F7420626164207265706C7900AC
:101EC00001000000303131313031313131313131C7
:101ED000313131303131313030303130300000008B
:101EE00030303030303030303030303030303030F2
:101EF0003030303030303030300000000100000031
:101F0000E803000001000000FFFFFFFF01000000E8
:041F10005006002057
:0400000300000D48A4
:00000001FF
